:100000000C947D190C94AE190C94AE190C94AE1985
:100010000C94AE190C94AE190C94AE190C94AE1944
:100020000C94AE190C94AE190C94AE190C94AE1934
:100030000C94AE190C94AE190C94AE190C94AE1924
:100040000C94AE190C947DC10C94AE190C94AE199D
:100050000C94AE190C94AE190C9454D10C945CD43D
:100060000C94AE190C9444200C94AE190C94AE1957
:100070000C94AE190C94AE190C94AE190C94AE19E4
:100080000C94AE190C94AE190C94AE190C94AE19D4
:100090000C94AE190C94AE190C94AE190C945D64CA
:1000A0000C94AE190C94AE190C94AE190C94AE19B4
:1000B0000C94AE190C94AE190C94AE190C94AE19A4
:1000C0000C94AE190C94AE190C94AE190C94AE1994
:1000D0000C94AE190C94AE190C94AE190C94AE1984
:1000E0000C94AE19905E905E9D5EAA5EC45ED15E79
:1000F000DE5EEB5EFA5EB75EB5AAB8AABCAAC0AA7D
:10010000C4AAC8AA2CABCCAAD0AAD5AA2CABDAAA6E
:10011000E0AAE4AAE9AAEDAAF1AA2CABF5AAF9AAE9
:10012000FFAA2CAB05AB0BAB0DAB0FAB11AB13ABFD
:1001300015AB17AB19AB1BAB1DAB1FAB21AB23AB87
:1001400025AB27AB29AB9CD5A1D5A6D5B0D5BAD5C3
:1001500033D6C4D5CCD5D4D5DED5E8D5F2D501D6A5
:100160000BD633D615D61FD629D654D657D646D653
:100170004AD650D68ED65BD65FD665D669D66DD6B2
:1001800073D677D67BD68ED681D685D689D6084AC1
:10019000D73B3BCE016E84BCBFFDC12F3D6C74319B
:1001A0009ABD56833DDA3D00C77F11BED9E4BB4CF2
:1001B0003E916BAAAABE000000803F05A84CCDB2BC
:1001C000D44EB93836A9020C50B9918688083CA69D
:1001D000AAAA2ABE000000803F0048617264636FD3
:1001E0006465642044656661756C7420536574743D
:1001F000696E6773204C6F616465640056303130FE
:100200000053746F7265642073657474696E6773EC
:100210002072657472696576656400204400204927
:10022000002020204D3330312050005049442073AD
:10023000657474696E67733A00205A002059002073
:10024000204D323036205800486F6D65206F66664D
:1002500073657420286D6D293A00204500205A00EE
:1002600020580020420020540020204D32303520FC
:100270005300416476616E636564207661726961E2
:10028000626C65733A20533D4D696E206665656406
:100290007261746520286D6D2F73292C20543D4D9B
:1002A000696E2074726176656C2066656564726142
:1002B000746520286D6D2F73292C20423D6D696E69
:1002C000696D756D207365676D656E742074696DF9
:1002D0006520286D73292C20583D6D6178696D75F6
:1002E0006D205859206A65726B20286D6D2F732917
:1002F0002C20205A3D6D6178696D756D205A206AF9
:1003000065726B20286D6D2F73292C2020453D6D63
:100310006178696D756D2045206A65726B20286D66
:100320006D2F73290020540020204D32303420538B
:1003300000416363656C65726174696F6E3A205346
:100340003D616363656C65726174696F6E2C2054E6
:100350003D7265747261637420616363656C65727C
:100360006174696F6E00204500205A0020590020FA
:10037000204D3230312058004D6178696D756D2007
:10038000416363656C65726174696F6E20286D6D81
:100390002F7332293A00204500205A0020590020AE
:1003A000204D3230332058004D6178696D756D20D5
:1003B00066656564726174657320286D6D2F73299D
:1003C0003A00204500205A0020590020204D3932A3
:1003D00020580053746570732070657220756E69C3
:1003E000743A0053657474696E67732053746F7246
:1003F0006564006563686F3A004D32313820496E9C
:1004000076616C6964206578747275646572200029
:100410004D31303920496E76616C6964206578749D
:10042000727564657220004D31303520496E7661F9
:100430006C696420657874727564657220004D3152
:10044000303420496E76616C696420657874727509
:1004500064657220005072696E7465722073746FE7
:10046000707065642064756520746F206572726FAA
:1004700072732E2046697820746865206572726FE9
:100480007220616E6420757365204D39393920748E
:100490006F20726573746172742E202854656D70BC
:1004A0006572617475726520697320726573657415
:1004B0002E20536574206974206166746572207201
:1004C000657374617274696E6729005072696E7425
:1004D00065722068616C7465642E206B696C6C2891
:1004E000292063616C6C656421006F6B0052657339
:1004F000656E643A2000456E6473746F7020737487
:10050000696C6C20707265737365642061667465D4
:1005100072206261636B696E67206F66662E20458C
:100520006E6473746F7020737475636B3F00456EF7
:100530006473746F70206E6F74207072657373656E
:100540006420616674657220686F6D696E672064EF
:100550006F776E2E20456E6473746F702062726FB9
:100560006B656E3F00456E6473746F70206E6F74C0
:1005700020707265737365642061667465722068AB
:100580006F6D696E6720646F776E2E20456E6473A1
:10059000746F702062726F6B656E3F002200556E43
:1005A0006B6E6F776E20636F6D6D616E643A2022A3
:1005B00000456C656374726F6E6963735F74657315
:1005C000740041637469766520457874727564655A
:1005D000723A2000496E76616C69642065787472A5
:1005E0007564657200540020423A300020423A316E
:1005F000006F6B20523A0020633A0020643A0020DA
:10060000693A0020703A006F6B002200556E6B6EE5
:100610006F776E20636F6D6D616E643A2022006F9C
:1006200070656E00545249474745524544007A5F11
:100630006D61783A20006F70656E005452494747EB
:100640004552454400795F6D61783A20006F7065CE
:100650006E0054524947474552454400785F6D69E2
:100660006E3A20005265706F7274696E6720656E15
:100670006473746F7020737461747573005A3A00F8
:10068000593A0020436F756E7420583A2000453A5D
:10069000005A3A00593A00583A004649524D5741DB
:1006A00052455F4E414D453A4D61726C696E205521
:1006B0006C74696D616B6572323B20537072696E48
:1006C0007465722F6772626C206D6173687570203B
:1006D000666F722067656E36204649524D5741520B
:1006E000455F55524C3A687474703A2F2F6769749D
:1006F0006875622E636F6D2F556C74696D616B65E3
:10070000722050524F544F434F4C5F5645525349FD
:100710004F4E3A312E30204D414348494E455F54AB
:100720005950453A556C74696D616B657220455836
:100730005452554445525F434F554E543A310A0086
:1007400020423A0020453A00543A003F0020573AF0
:100750000020453A00543A002042403A0020403AF6
:1007600000202F0020423A00202F006F6B20543AC7
:10077000002569206D696E2C202569207365630052
:10078000456E642066696C65206C6973740042650F
:1007900067696E2066696C65206C697374002569F1
:1007A00020686F757273202569206D696E75746598
:1007B0007300446F6E65207072696E74696E672095
:1007C00066696C65005072696E7465722073746F2F
:1007D000707065642064756520746F206572726F37
:1007E00072732E2046697820746865206572726F76
:1007F0007220616E6420757365204D39393920741B
:100800006F20726573746172742E202854656D7048
:1008100065726174757265206973207265736574A1
:100820002E2053657420697420616674657220728D
:10083000657374617274696E6729006F6B004E6F27
:10084000204C696E65204E756D6265722077697403
:100850006820636865636B73756D2C204C617374DD
:10086000204C696E653A20004E6F20436865636BCB
:1008700073756D2077697468206C696E65206E757C
:100880006D6265722C204C617374204C696E653A00
:100890002000636865636B73756D206D69736D61AE
:1008A0007463682C204C617374204C696E653A2027
:1008B000004C696E65204E756D626572206973200B
:1008C0006E6F74204C617374204C696E65204E7598
:1008D0006D6265722B312C204C617374204C696EF3
:1008E000653A20004D31313000446F6E65207361F0
:1008F00076696E672066696C652E006F6B004D32FD
:1009000039002020506C616E6E65724275666665B6
:100910007242797465733A20002046726565204DF5
:10092000656D6F72793A20004A756E20313520323C
:1009300030313600436F6D70696C65643A20005643
:10094000657273696F6E2044455600207C204175A6
:1009500074686F723A20004A756E2031352032304B
:1009600031362031333A31313A333400204C61731F
:100970007420557064617465643A2000312E302E05
:1009800030004D61726C696E200020536F66747781
:1009900061726520526573657400205761746368E5
:1009A000646F67205265736574002042726F776EC2
:1009B000206F7574205265736574002045787465E6
:1009C000726E616C20526573657400506F7765724A
:1009D0005570007374617274002200656E717565E4
:1009E000696E672022002200656E717565696E6709
:1009F000202200FF01010000E0400000E040000074
:100A0000E040000008430000F842000002430000FC
:100A100060C10000F842000002430000F442000000
:100A2000F84200000243000060C100000000000026
:100A300000006563686F3A004572726F723A000099
:100A4000002110422063308440A550C660E7700842
:100A50008129914AA16BB18CC1ADD1CEE1EFF131C9
:100A600012100273325222B5529442F772D6623992
:100A70009318837BB35AA3BDD39CC3FFF3DEE36219
:100A800024433420040114E664C774A44485546AE2
:100A9000A54BB528850995EEE5CFF5ACC58DD553A9
:100AA00036722611163006D776F6669556B4465B32
:100AB000B77AA719973887DFF7FEE79DD7BCC7C479
:100AC00048E5588668A7784008611802282338CC82
:100AD000C9EDD98EE9AFF9488969990AA92BB9F509
:100AE0005AD44AB77A966A711A500A333A122AFDD2
:100AF000DBDCCBBFFB9EEB799B588B3BBB1AABA6D9
:100B00006C877CE44CC55C222C033C600C411CAE21
:100B1000ED8FFDECCDCDDD2AAD0BBD688D499D97E8
:100B20007EB66ED55EF44E133E322E511E700E9F71
:100B3000FFBEEFDDDFFCCF1BBF3AAF599F788F8838
:100B400091A981CAB1EBA10CD12DC14EF16FE18009
:100B500010A100C230E3200450254046706760B900
:100B6000839893FBA3DAB33DC31CD37FE35EF3B159
:100B7000029012F322D2323542145277625672EA50
:100B8000B5CBA5A89589856EF54FE52CD50DC5E2A9
:100B900034C324A01481046674476424540544DBE0
:100BA000A7FAB79987B8975FE77EF71DC73CD7D3F9
:100BB00026F2369106B01657667676154634564CB0
:100BC000D96DC90EF92FE9C899E9898AB9ABA94449
:100BD00058654806782768C018E1088238A3287D40
:100BE000CB5CDB3FEB1EFBF98BD89BBBAB9ABB7599
:100BF0004A545A376A167AF10AD01AB32A923A2E10
:100C0000FD0FED6CDD4DCDAABD8BADE89DC98D26E8
:100C10007C076C645C454CA23C832CE01CC10C1F1F
:100C2000EF3EFF5DCF7CDF9BAFBABFD98FF89F1738
:100C30006E367E554E745E932EB23ED10EF01E7C03
:100C40003C3E5E2B3D3F2F5B5D3B2C2A225C0050DF
:100C500052494E54004D4154455249414C004D417A
:100C6000494E54454E414E4345005072696E746979
:100C70006E672077697468205553422E2E2E0075BA
:100C80006C74696D616B65722E636F6D2F455230A8
:100C90003700476F20746F3A0058206F7220592038
:100CA00073776974636820737475636B00756C7413
:100CB000696D616B65722E636F6D2F455230370021
:100CC000476F20746F3A0058206F72205920737755
:100CD000697463682062726F6B656E00756C74690D
:100CE0006D616B65722E636F6D2F45523036004714
:100CF0006F20746F3A005A207377697463682073A9
:100D00007475636B00756C74696D616B65722E63CD
:100D10006F6D2F4552303500476F20746F3A005A7F
:100D2000207377697463682062726F6B656E0075FB
:100D30006C74696D616B65722E636F6D2F455230F7
:100D40003400476F20746F3A0053616665747920F0
:100D50006369726375697400756C74696D616B6544
:100D6000722E636F6D2F4552303300476F20746FC2
:100D70003A00486561746572206572726F72007521
:100D80006C74696D616B65722E636F6D2F455230A7
:100D90003200476F20746F3A0054656D70207365A0
:100DA0006E736F722042454400756C74696D616B9F
:100DB00065722E636F6D2F4552303100476F20747E
:100DC0006F3A0054656D702073656E736F720045E5
:100DD00052524F52202D2053544F505045440080C2
:100DE0001506060606FEFEFEFEFC000000000000E2
:100DF00000FCFEFEFEFC0000000EFEFEFEFE0000FB
:100E0000E0FCFEFEFCE0E0000000CECECE000000E4
:100E1000C0C0C0C0C0C08000000000000080C0C0D2
:100E2000800000000000008080C0C0C0C0C0C0C002
:100E300080800000000006FEFEFEFE000000008034
:100E4000C0C0C00000000000008080C0C0C0808022
:100E50008000000000C0C0C0C00080C0C0C0C08012
:100E600000000000007FFFFFFFFF80000000000087
:100E700080FFFFFFFFFF00000000FFFFFFFF0000FB
:100E800000FFFFFFFF0000000000FFFFFF00000069
:100E900081F1FFFF3F0F3FFFFCF0F0FCFF3F0F3FF2
:100EA000FFFEF880000000C1E1F1F1713101018322
:100EB000FFFFFFFC000000FFFFFFFF000C3EFFFFF5
:100EC000F7C301000000FCFEFF8703113131333FFF
:100ED0003F3F1E000001FFFFFFFF0703010101016B
:100EE000000000000000010307070F0F0F0F0F0F96
:100EF0000F0707070F0F06000000070F0F0700007E
:100F000000070F0F0700000000000F0F0F00000682
:100F10000F0F070100000001070F0F07010000007D
:100F200001070F0F06000003070F0F0E0E06070341
:100F3000070F0F07000000070F0F07000000000356
:100F40000F0F0F060000000307070F0E0E0E0E0E08
:100F50000E06000000000F0F0F0F00000000000041
:100F600000507265763A200043414E43454C0020C4
:100F700073656300206D696E0020686F75720020D4
:100F8000686F75727300000000000000005F0000D1
:100F90000007000700147F147F14242A7F2A1223DD
:100FA0001308646236495522500005030000001CF6
:100FB0002241000041221C00082A1C2A0808083E81
:100FC00008080050300000080808080800606000A9
:100FD0000020100804023E5149453E00427F400077
:100FE00042615149462141454B311814127F102767
:100FF000454545393C4A494930017109050336499F
:10100000494936064949291E003636000000563641
:10101000000000081422411414141414412214086E
:10102000000201510906324979413E7E1111117EBB
:101030007F494949363E414141227F4141221C7F3F
:10104000494949417F090901013E414151327F0827
:1010500008087F00417F41002040413F017F081484
:1010600022417F404040407F0204027F7F040810FD
:101070007F3E4141413E7F090909063E4151215EC3
:101080007F09192946464949493101017F01013F3C
:101090004040403F1F2040201F7F2018207F6314C6
:1010A0000814630304780403615149454300007F39
:1010B0004141020408102041417F00000402010266
:1010C0000440404040400001020400205454547841
:1010D0007F484444383844444420384444487F38A6
:1010E00054545418087E090102081454543C7F08D3
:1010F00004047800447D40002040443D00007F10FF
:10110000284400417F40007C041804787C080404D3
:101110007838444444387C14141408081414187C97
:101120007C080404084854545420043F4440203CA4
:101130004040207C1C2040201C3C4030403C442847
:101140001028440C5050503C4464544C4400083621
:10115000410000007F0000004136080008082A1CFA
:1011600008081C2A0808473120462569205A2569A5
:10117000205825692059256900473238205A3020E7
:101180005830205930006275696C64706C61746508
:101190002E006F662061646A757374696E672079CA
:1011A0006F7572007468726F756768207468652067
:1011B00070726F6365737300492077696C6C206788
:1011C0007569646520796F7500434F4E54494E55DB
:1011D000450043414E43454C00473238205A3000C9
:1011E000746F207072696E742069742100616E647E
:1011F0002070726573732074686520627574746FF3
:101200006E006F6E207468652053442D63617264B4
:101210000053656C6563742061207072696E742080
:1012200066696C650032312F3231004C45542753CA
:10123000205052494E540052656164696E672063C4
:101240006172642E2E2E0032312F323100796F758B
:101250007220556C74696D616B6572322E2E2E0092
:10126000746861742063616D6520776974680050EB
:101270006C6561736520696E736572742053442DCB
:10128000636172640032312F3231006D616B652011
:1012900061203344205072696E74210049276D200B
:1012A0007265616479206C657427730032302F3267
:1012B000310041524520594F552052454144593F34
:1012C0000053656C65637420746865206D61746596
:1012D0007269616C006974206973207573696E6747
:1012E0002E006F66206D6174657269616C006B6EB3
:1012F0006F77732077686174206B696E64004E6F3E
:101300007720796F757220556C74696D616B6572A9
:10131000320031392F323100434F4E54494E55453A
:1013200000697320746869732072696768743F008C
:10133000596F7520686176652063686F73656E000C
:1013400031382F323100594553004E4F0020617320
:10135000206D6174657269616C2C0031372F3231F8
:10136000004D4154455249414C00556C74696D61C2
:101370006B6572322E00696E7365727465642069E4
:101380006E2074686973006D6174657269616C20A8
:10139000796F752068617665004E6578742C2073CE
:1013A000656C656374207468650031362F323100D6
:1013B00052454144590066726F6D206E6F7A7A6CA7
:1013C000652E2E2E006D6174657269616C206578E2
:1013D000697473005075736820627574746F6E2041
:1013E0007768656E0031352F323100434F4E5449D6
:1013F0004E5545004C6F6164696E67206D61746580
:101400007269616C2E2E2E0031342F3231006162F0
:101410006F766520746865206172726F772E00792F
:101420006F757220556C74696D616B6572322C003A
:1014300066726F6D207468652072656172206F66D8
:1014400000496E73657274206E6577206D617465F6
:101450007269616C0031332F323100434F4E544971
:101460004E5545006D6174657269616C206C6F61E9
:1014700064696E67007072696E7468656164206883
:10148000656174696E6720666F7200506C65617388
:101490006520776169742C0031322F3231004D386C
:1014A000340047312046313230303020583131302D
:1014B0002059313000746F20696E73657274206D2D
:1014C0006174657269616C2E00746865206E657860
:1014D0007420737465702069730074686520627588
:1014E000696C64706C617465004E6F77207468611C
:1014F00074207765206C6576656C65640031312FEA
:10150000323100434F4E54494E55450074686520B2
:10151000726967687420636F726E65722E2E2E007A
:10152000526570656174207468697320666F72001B
:1015300031302F323100434F4E54494E554500440F
:101540004F4E4500746865206C65667420636F7249
:101550006E65722E2E2E005265706561742074685F
:10156000697320666F7200392F323100434F4E5439
:10157000494E5545006269742072657369737461E0
:101580006E63652E00756E74696C20796F752066C8
:1015900065656C2061006275696C64706C6174656E
:1015A00020616E64206E6F7A7A6C6500536C69649A
:1015B0006520612070617065722062657477656571
:1015C0006E00382F323100434F4E54494E5545007E
:1015D000434F4E54494E554500473120462569201A
:1015E0005A30004731204625692058256920592561
:1015F0006900473120462569205A35007468652006
:101600006275696C64706C617465206C6576656C7C
:101610002E00706170657220746F2066696E652D92
:1016200074756E65006E6F77207573652061207329
:1016300068656574206F660052657065617420741A
:1016400068697320737465702C2062757400372F7D
:10165000323100434F4E54494E55450066726F6D0E
:1016600020746865206275696C64706C6174652EA5
:101670000069732061206D696C6C696D65746572B9
:1016800020617761790073637265772074696C6C8F
:1016900020746865206E6F7A7A6C65005475726E7E
:1016A000207269676874206275696C64706C61741B
:1016B0006500362F323100434F4E54494E55450098
:1016C000473120462569205A300047312046256998
:1016D0002058256920592569004731204625692071
:1016E0005A350066726F6D20746865206275696C8A
:1016F00064706C6174652E0069732061206D696C83
:101700006C696D65746572206177617900736372CD
:1017100065772074696C6C20746865206E6F7A7AC6
:101720006C65005475726E206C6566742062756914
:101730006C64706C61746500352F323100434F4E1C
:1017400054494E554500473120462569205A3000FE
:1017500047312046256920582569205925690047C9
:101760003120462569205A350066726F6D207468F5
:1017700065206275696C64706C6174652E0061200F
:101780006D696C6C696D6574657220617761790053
:10179000756E74696C20746865206E6F7A7A6C65FA
:1017A00020697300526F74617465207468652062EB
:1017B0007574746F6E00342F323100434F4E5449AC
:1017C0004E554500434F4E54494E55450047312034
:1017D000462569205A256920582569205925690020
:1017E00047323820583020593000676F696E6720C3
:1017F000746F20646F2074686174206E6F772E00A0
:1018000061646A7573746D656E74732C20776520DE
:10181000617265007765206E65656420746F206471
:101820006F20736F6D65004166746572207472611C
:101830006E73706F72746174696F6E00332F323122
:1018400000434F4E54494E554500473120462569C7
:10185000205A256900473238205A300061206669D5
:101860007273742072756E2077697A6172642E00CB
:1018700077616C6B20796F75207468726F7567681B
:101880000066697273742073746172747570204994
:101890002077696C6C0042656361757365207468BC
:1018A00069732069732074686500322F32310043F8
:1018B0004F4E54494E554500627574746F6E2074D6
:1018C0006F20636F6E74696E756500556C74696D19
:1018D000616B6572212050726573732074686500B6
:1018E00073746172747570206F6620796F75720001
:1018F00057656C636F6D6520746F20746865206632
:101900006972737400312F323100434F4E54494E87
:101910005545003F3F3F00466163746F7279207206
:10192000657365740052756E74696D6520737461BA
:1019300074730056657273696F6E004D6F74696FD2
:101940006E2073657474696E67730052657472619A
:101950006374696F6E2073657474696E6773005386
:1019600065742066616E207370656564004D6F76E6
:1019700065206D6174657269616C00496E73657292
:1019800074206D6174657269616C00526169736580
:10199000206275696C64706C617465004C6F77656A
:1019A00072206275696C64706C61746500486F6D5B
:1019B00065206865616400486561747570206E6FAC
:1019C0007A7A6C65004C45442073657474696E675F
:1019D00073003C2052455455524E0056657273694F
:1019E0006F6E204445560025004300432F0025001C
:1019F0003F3F3F0020476C6F77207768656E20641B
:101A00006F6E6500204F6E207768696C652070727C
:101A1000696E74696E670020416C77617973204F3D
:101A200066660020416C77617973204F6E004272C8
:101A3000696768746E657373003C20524554555253
:101A40004E00250025004272696768746E657373E5
:101A5000004C4544004300432F00436C69636B20F6
:101A6000746F2072657475726E004E6F7A7A6C6551
:101A70002074656D70657261747572653A004732E5
:101A800038205830205930004300432F00436C6900
:101A9000636B20746F2072657475726E00526F7480
:101AA00061746520746F2065787472756465004E8A
:101AB0006F7A7A6C652074656D7065726174757289
:101AC000653A003F3F3F0052657472616374207352
:101AD000706565640052657472616374206C656E34
:101AE000677468003C2052455455524E006D6D2F6E
:101AF000736563006D6D006D6D2F736563005265D6
:101B00007472616374207370656564006D6D00525A
:101B1000657472616374206C656E67746800524509
:101B20005452414354494F4E003F3F3F004375726A
:101B300072656E7420450043757272656E74205A2A
:101B40000043757272656E7420582F59004D61788C
:101B5000207370656564205A004D6178207370654C
:101B600065642059004D6178207370656564205864
:101B700000582F59204A65726B00416363656C659C
:101B8000726174696F6E003C2052455455524E008C
:101B90006D41006D41006D41006D6D2F73656300F7
:101BA0006D6D2F736563006D6D2F736563006D6DD3
:101BB0002F736563006D6D2F7365635E32006D4139
:101BC0000043757272656E742045006D4100437567
:101BD0007272656E74205A006D41004375727265B1
:101BE0006E7420582F59006D6D2F736563004D6121
:101BF00078207370656564205A006D6D2F7365637E
:101C0000004D61782073706565642059006D6D2FFB
:101C1000736563004D6178207370656564205800BA
:101C20006D6D2F73656300582F59204A65726B00E4
:101C300030306D6D2F7365635E3200416363656C98
:101C400065726174696F6E004D4F54494F4E005676
:101C5000657273696F6E20444556004A756E203177
:101C60003520323031362031333A31313A33350094
:101C700052657475726E006D00204D61743A003AC1
:101C8000005072696E74696E673A003A004D616384
:101C900068696E65206F6E20666F723A00526574D7
:101CA00075726E00746F2064656661756C743F00B8
:101CB00052657365742065766572797468696E67BC
:101CC00000594553004E4F00250046616E20737049
:101CD00065656400473120462569205825692059EB
:101CE00025690047323820583020593000473120CC
:101CF0005A343000473238205A3000473238205AA0
:101D00003000473238205830205930004144564185
:101D10004E434544004255494C442D7C504C41545F
:101D20004500414456414E434544005245545552A6
:101D30004E00504C41006D6174657269616C2069A0
:101D40006E73657274696F6E0048656174696E6761
:101D5000207072696E746865616420666F72002518
:101D60000046616E3A200043002500466C6F773ACA
:101D7000006D6D004D4154455249414C00636F6DFB
:101D80006573206F757420746865206E6F7A7A6C45
:101D90006500576169742074696C6C206D617465AD
:101DA0007269616C0052454144590043414E4345BC
:101DB0004C00466F7277617264696E67206D617462
:101DC000657269616C0061626F7665207468652078
:101DD0006172726F772E00796F7572206D61636822
:101DE000696E652C0066726F6D2074686520626193
:101DF000636B73696465206F6600496E7365727406
:101E0000206E6577206D6174657269616C00524562
:101E10004144590043414E43454C0052656D6F7635
:101E200065206D6174657269616C00524541445969
:101E30000043414E43454C00526576657273696EAE
:101E400067206D6174657269616C00666F72206DE8
:101E50006174657269616C2072656D6F76616C008A
:101E600048656174696E67207072696E7468656137
:101E7000640047323820583020593000496D706F67
:101E800072742066726F6D205344004578706F72D3
:101E90007420746F20534400437573746F6D697AB6
:101EA00065003C2052455455524E004C6F6164739E
:101EB00020616C6C206D6174657269616C73005394
:101EC0006176657320616C6C206D61746572696107
:101ED0006C73004D6F646966792074686520736562
:101EE0007474696E677300250046616E3A20004382
:101EF000002500466C6F773A006D6D003F3F3F0054
:101F000053746F726520617320707265736574001D
:101F1000466C6F7720250046616E004469616D65EF
:101F20007465720054656D706572617475726500D8
:101F30003C2052455455524E00250025006D6D0041
:101F400043004E657720707265736574003C2052C3
:101F5000455455524E0050524553455453002500A8
:101F60004D6174657269616C20666C6F7700250045
:101F700046616E207370656564006D6D004D61741F
:101F8000657269616C204469616D657465720043B6
:101F90000054656D7065726174757265004D4154D1
:101FA000455249414C00696E204D415445524941CA
:101FB0004C2E54585400746F20746865205344208C
:101FC00063617264005361766564206D617465724B
:101FD00069616C73004F6B000A0A006469616D658A
:101FE0007465723D000A00666C6F773D000A0066FA
:101FF000616E5F73706565643D000A0074656D70A5
:10200000657261747572653D000A006E616D653DB3
:10201000005B6D6174657269616C5D0A0052656197
:1020200064696E6720636172642E2E2E00506C65A9
:1020300061736520696E73657274206361726400F8
:102040004E6F2053442D43415244210066726F6D00
:10205000207468652053442063617264004C6F6192
:10206000646564206D6174657269616C73004F6BA7
:10207000006469616D6574657200666C6F770066F7
:10208000616E5F7370656564006265645F74656D41
:1020900070657261747572650074656D70657261EA
:1020A00074757265006E616D65005B6D617465725B
:1020B00069616C5D00466F756E64206F6E206361B0
:1020C00072642E004E6F206578706F72742066699E
:1020D0006C650052656164696E6720636172642E8D
:1020E0002E2E00506C6561736520696E7365727485
:1020F0002063617264004E6F2053442D434152446B
:10210000210053656C6563746564206D617465724C
:1021100069616C3A004F4B004D4154455249414C66
:102120000047312046256920582569205925690036
:10213000473238205830205930004348414E4745F7
:102140000053455454494E47530052455455524E3E
:10215000004300432F00436C69636B20746F20724F
:10216000657475726E004E6F7A7A6C652074656D59
:1021700070657261747572653A0050726570617253
:10218000696E6720746F207072696E743A004865DA
:102190006174696E672075702E2E2E0054554E4561
:1021A0000041424F5254004C4544204272696768D6
:1021B000746E6573730052657472616374696F6ED7
:1021C000004D6174657269616C20666C6F770046C2
:1021D000616E2073706565640054656D7065726131
:1021E000747572650053706565640041626F727446
:1021F000003C2052455455524E0025002500250034
:1022000043004300250041626F72742074686520AA
:102210007072696E743F00594553004E4F003F3F46
:102220003F00526574726163742073706565640069
:1022300052657472616374206C656E677468003CEB
:102240002052455455524E006D6D2F736563006DDD
:102250006D006D6D2F7365630052657472616374F8
:10226000207370656564006D6D0052657472616302
:1022700074206C656E677468005245545241435433
:10228000494F4E0025004272696768746E6573732A
:102290000025004D6174657269616C20666C6F7712
:1022A00000250046616E207370656564002500504E
:1022B00072696E742073706565640054554E4500F4
:1022C00054696D65206C6566740054696D65206C99
:1022D00065667420756E6B6E6F776E004300430009
:1022E00048656174696E67206275696C64706C61C1
:1022F0007465004300430048656174696E6700506F
:1023000072696E74696E673A0054554E45005041CB
:1023100055534500524553554D457C5052494E54F6
:10232000004348414E47457C4D4154455249414C3C
:102330000054554E45004D3834004732380047327E
:1023400038205A3000473238205830205930004762
:10235000312046256920453000473932204525691E
:10236000004D343031004D3630312058352059354C
:10237000205A2569204C25690074686520707269AF
:102380006E742E00596F752063616E2072656D6FDB
:102390007665005072696E742066696E697368654F
:1023A00064004241434B20544F204D454E5500435D
:1023B00020005072696E74657220636F6F6C696E75
:1023C0006720646F776E004241434B20544F204D8D
:1023D000454E55006F66207072696E74696E672095
:1023E00061726561005472696564207072696E740F
:1023F000696E67206F7574004552524F523A005211
:10240000455455524E20544F204D41494E00756C55
:1024100074696D616B65722E636F6D2F4552303834
:1024200000476F20746F3A0072656164696E6720BF
:1024300053442D6361726421004572726F7220777C
:1024400068696C650052455455524E20544F204DDA
:1024500041494E0066726F6D2074686520736C6927
:102460006365722E0073657474696E672077697492
:10247000682073657474696E67006F76657272693F
:102480006465206D616368696E65005468697320D6
:1024900066696C652077696C6C00434F4E54494EF9
:1024A00055450043414E43454C003C204241434B7F
:1024B000003C2052455455524E0053442043415253
:1024C000440047312046313230303020582D3130F1
:1024D0002059313000473238003B464C41564F526C
:1024E0003A556C746947436F6465003B464C4156EE
:1024F0004F523A556C746947436F6465004E6F20C4
:1025000066696C657320666F756E6421004F4B00C1
:102510004F4B0052656164696E6720636172642E7F
:102520002E2E00506C6561736520696E7365727440
:102530002063617264004E6F2053442D4341524426
:1025400021004E6F20696E666F20617661696C6153
:10255000626C65006D006D004D6174657269616C3F
:102560003A200054696D653A20003B4D4154455274
:1025700049414C3A003B54494D453A00466F6C6422
:102580006572004D383420582059205A20450043A8
:10259000616E6E6F7420656E74657220737562640F
:1025A00069723A20004D3234004D323320257300D9
:1025B0006175746F25692E67006572726F7220777E
:1025C000726974696E6720746F2066696C65004378
:1025D000617264206572726F723A004E6F7420539C
:1025E00044207072696E74696E67002F0053442036
:1025F0007072696E74696E67206279746520002E4E
:102600000044656C6574696F6E206661696C656411
:102610002C2046696C653A200046696C652064652B
:102620006C657465643A002E006F70656E2066619B
:10263000696C65642C2046696C653A2000577269A4
:1026400074696E6720746F2066696C653A20002E8D
:10265000006F70656E206661696C65642C20466948
:102660006C653A20002E006F70656E206661696CA3
:1026700065642C2046696C653A200046696C6520CB
:1026800073656C6563746564002053697A653A20EC
:102690000046696C65206F70656E65643A20002E97
:1026A000006F70656E206661696C65642C204669F8
:1026B0006C653A200053442063617264206F6B00A4
:1026C0006F70656E526F6F74206661696C6564002F
:1026D000766F6C756D652E696E6974206661696CC4
:1026E000656400534420696E6974206661696C00FA
:1026F00043616E6E6F74206F70656E2073756264D7
:102700006972006563686F3A004572726F723A00D1
:10271000544553540D0A000D0A00556E6B6E6F77C9
:102720006E20636F6D6D616E643A20000D0A003F8C
:102730000056657273696F6E204445560020746FB1
:102740006F206C6F6E6720657874727573696F6E39
:102750002070726576656E7465640020636F6C64CA
:1027600020657874727573696F6E20707265766516
:102770006E746564006563686F3A00205A3A002001
:10278000593A0020583A00656E6473746F70732074
:102790006869743A200024F4D43050C38E20C2A259
:1027A0004017828B7011127A910D816CD90AA86141
:1027B000E108C7586607615143061E4B5D05C145D8
:1027C000A7041A411104093D9803713931034036B9
:1027D000DB0265339102D4305402802E1D02632C3B
:1027E000EE01752AC501B028A001102781018F25AF
:1027F00064012B244B01E0223401AC211F018D2008
:102800000D01801FFC00841EED00971DDF00B81C29
:10281000D200E61BC600201BBC00641AB200B2192D
:10282000A8000A19A0006A189900D1179100401752
:102830008B00B516840031167E00B31579003A1569
:102840007300C7146F0058146A00EE1366008813F3
:10285000630025135E00C7125B006C12570015124F
:102860005400C111510070114F0021114B00D610BE
:1028700049008D1047004610440002104200C00F6E
:102880004000800F3E00420F3C00060F3B00CB0E85
:102890003800930E37005C0E3500270E3400F30D20
:1028A0003200C10D3100900D3000600D2E00320D50
:1028B0002D00050D2C00D90C2B00AE0C2900850C29
:1028C00029005C0C2700350C27000E0C2600E80BB5
:1028D0002400C40B2400A00B23007D0B23005A0B03
:1028E0002100390B2100180B2000F80A1F00D90A1B
:1028F0001E00BB0A1E009D0A1D00800A1D00630AFF
:102900001C00470A1B002C0A1B00110A1A00F709B9
:102910001A00DD091900C4091900AB091900920950
:1029200017007B091800630917004C0916003609C7
:102930001600200916000A091500F5081500E00820
:102940001400CC081400B8081400A408140090085F
:1029500013007D0812006B08130058081200460887
:102960001200340811002308110012081100010898
:102970001100F0071000E0071000D0071000C0079A
:102980001000B0070F00A107100091070E00830789
:102990000F0074070F0065070E0057070E00490768
:1029A0000E003B070D002E070E0020070D00130739
:1029B0000D0006070D00F9060C00ED060D00E006FF
:1029C0000C00D4060C00C8060C00BC060C00B006B7
:1029D0000C00A4060B0099060C008D060B00820665
:1029E0000B0077060B006C060B0061060A00570609
:1029F0000B004C060A0042060A0038060A002E06A2
:102A00000A0024060A001A060A0010060900070632
:102A10000A00FD050900F4050900EB050900E205BF
:102A20000900D9050900D0050900C7050900BE0540
:102A30000900B5050800AD050800A50509009C05BD
:102A40000800940508008C050800840508007C0532
:102A50000800740508006C050700650508005D05A1
:102A60000700560508004E0507004705070040050A
:102A7000080038050700310507002A05070023056F
:102A800007001C050600160507000F0507000805CE
:102A9000060002050700FB040600F5040700EE042B
:102AA0000600E8040600E2040700DB040600D50483
:102AB0000600CF040600C9040600C3040600BD04D6
:102AC0000600B7040600B1040500AC040600A60425
:102AD0000600A00405009B04060095040500900470
:102AE00006008A04050085040500800406007A04B7
:102AF000050075040500700405006B0405006604FC
:102B00000500610405005C0405005704050052043B
:102B100005004D04050048040500430405003E047B
:102B200004003A04050035040500300404002C04B8
:102B3000050027040400230405001E0404001A04F1
:102B4000040016040500110404000D040400090427
:102B500005000404040000040400FC030400F8035E
:102B60000400F4030400F0030400EC030400E80391
:102B70000400E4030400E0030400DC030400D803C1
:102B80000400D4030400D0030400CC030400C803F1
:102B90000300C503030024F404D9201BC40C5C0EFD
:102BA0009804C4095F0265077101F405F900FB048C
:102BB000B30048048700C1036900580355000303AC
:102BC0004500BE023A008402310053022A00290265
:102BD000250004022000E4011C00C8011900AF0117
:102BE00017009801140084011300710110006101A5
:102BF000100051010E0043010D0036010B002B01A6
:102C00000B0020010B00150109000C010900030154
:102C10000800FB000800F3000800EB000700E400D8
:102C20000600DE000600D8000600D2000600CC0038
:102C30000500C7000500C2000500BD000400B90082
:102C40000400B5000400B1000400AD000400A900B8
:102C50000400A5000300A20003009F0004009B00E5
:102C60000300980003009500020093000300900009
:102C700003008D0002008B00030088000200860024
:102C8000020084000300810002007F0002007D003A
:102C900002007B000200790002007700010076004C
:102CA00002007400020072000100710002006F0057
:102CB00002006D0001006C0002006A000100690062
:102CC0000200670001006600010065000100640069
:102CD00002006200010061000100600001005F006D
:102CE00002005D0001005C0001005B0001005A0071
:102CF0000100590001005800010057000100560072
:102D00000100550001005400010053000000530071
:102D100001005200010051000100500001004F006D
:102D200001004E0000004E0001004D0001004C006B
:102D300001004B0000004B0001004A000100490067
:102D40000100480000004800010047000100460063
:102D5000000046000100450000004500010044005D
:102D60000100430000004300010042000000420057
:102D700001004100000041000100400001003F004F
:102D800000003F0001003E0000003E0001003D0049
:102D900000003D0001003C0000003C0000003C0041
:102DA00001003B0000003B0001003A0000003A0037
:102DB000010039000000390001003800000038002F
:102DC0000000380001003700000037000100360025
:102DD000000036000000360001003500000035001C
:102DE0000000350001003400000034000000340011
:102DF0000100330000003300000033000100320006
:102E000000003200000032000100310000003100FB
:102E100000003100010030000000300000003000F0
:102E200001002F0000002F0000002F0000002F00E5
:102E300001002E0000002E0000002E0001002D00D9
:102E400000002D0000002D0000002D0001002C00CE
:102E500000002C0000002C0000002C0001002B00C2
:102E600000002B0000002B0000002B0001002A00B6
:102E700000002A0000002A0000002A0001002900AA
:102E8000000029000000290000002900000029009E
:102E90000100280000002800000028000000280091
:102EA0000000280001002700000027000000270084
:102EB0000000270000002700010026000000260077
:102EC000000026000000260000002600010025006A
:102ED000000025000000250000002500000025005E
:102EE0000000250001002400000024000000240050
:102EF0000000240000002400010023000000230043
:102F00000000230000002300000023000000230035
:102F10000000230001002200000022000000220027
:102F20000000220000002200000022000100210019
:102F3000000021000000210000002100000021000D
:102F400000002100000021000100200000002000FE
:102F500000002000000020000000200000002000F1
:102F6000000020000000200001001F0000001F00E2
:102F700000001F0000001F0000001F0000001F00D5
:102F800000001F0001001E0000001E0000001E00C7
:102F900000001E0000006563686F3A003A20457823
:102FA00074727564657220737769746368656420F0
:102FB0006F66662E204D494E54454D5020747269FF
:102FC0006767657265642021003A204578747275E0
:102FD000646572207377697463686564206F6666E0
:102FE0002E204D415854454D5020747269676765D5
:102FF000726564202100202D20496E76616C696421
:10300000206578747275646572206E756D62657284
:10301000202100504944204175746F74756E6520FD
:1030200066696E69736865642120507574207468E0
:1030300065204B702C204B6920616E64204B64200E
:10304000636F6E7374616E747320696E746F204366
:103050006F6E66696775726174696F6E2E68005075
:103060004944204175746F74756E65206661696CA2
:103070006564212074696D656F75740020403A00A5
:103080006F6B20543A006F6B20423A005049442045
:103090004175746F74756E65206661696C65642135
:1030A0002054656D706572617475726520746F6F00
:1030B000206869676800204B643A2000204B693A19
:1030C0002000204B703A200020436C61736963201C
:1030D00050494420002054753A2000204B753A2076
:1030E00000206D61783A2000206D696E3A20002042
:1030F000643A200020626961733A200050494420FC
:103100004175746F74756E652073746172740050CC
:103110004944204175746F74756E65206661696CF1
:1031200065642E20426164206578747275646572EE
:10313000206E756D6265722E004572726F723A0074
:103140000000000018070100A8071400300828003C
:10315000B8083C0038095000C0096400480A7800EB
:10316000C80A8C00480BA000C80BB400480CC8006B
:10317000C80CDC00400DF000C00D0401380E180131
:10318000B00E2C01280F4001A00F54011810680147
:1031900088107C01001190013013F4014815580289
:1031A0004017BC0228192003F01A8403A81CE80366
:1031B000401E4C0400000A0B02090C0D0E08070308
:1031C00004010000000000000000000000000000FA
:1031D00000000000000000000000000000000000EF
:1031E00012111000000000000000000000000000AC
:1031F0000000000000000000000001021020200874
:103200000810204010204080020102010804020141
:1032100001020408102040808040201008040201B0
:103220008004020180402010080402010804020109
:103230000102040810204080010204081020408090
:1032400005050505070508080808020202020A0A22
:103250000808040404040101010101010101030340
:10326000030303030303040707070C0C0C0C0C0CEB
:103270000C0C0202020206060606060606060B0BE8
:103280000B0B0B0B0B0B00002200250028002B0062
:103290002E003100340002010000050108010B017D
:1032A00000002100240027002A002D0030003300F8
:1032B00001010000040107010A014E414E494E4937
:1032C0005459494E46CDCCCC3D0AD7233C17B7D1F3
:1032D0003877CC2B329595E6241FB14F0A00002099
:1032E000410000C84200401C4620BCBE4CCA1B0E18
:1032F0005AAEC59D7400134B244B11241FBECFEF53
:10330000D1E2DEBFCDBF00E00CBF13E0A0E0B2E031
:10331000EAE4FEEC01E00BBF02C007900D92AC3670
:10332000B107D9F729E1ACE6B3E001C01D92AE3890
:10333000B207E1F712E3C8EFD2E300E006C022973C
:103340000109FE010BBF0E9450D9C63FD10780E0A2
:103350000807A9F70E944FD40C9413E70C940000BF
:10336000EF92FF920F931F93CF93DF931F92CDB7EE
:10337000DEB78C017B01460FF70161917F01F801F7
:103380008081918149830E9444E6F8018081918186
:1033900001969183808349814E11EECF0F90DF918A
:1033A000CF911F910F91FF90EF900895EF92FF92B0
:1033B0000F931F93CF93DF931F92CDB7DEB78C018E
:1033C0007B01460FF8018081918149830E9429E6A3
:1033D000F70181937F01F8018081918101969183AA
:1033E000808349814E11EECF0F90DF91CF911F91D5
:1033F0000F91FF90EF9008950F931F93CF93DF935A
:10340000CDB7DEB766970FB6F894DEBF0FBECDBF5F
:1034100080E390E3A0E3B0E08D839E83AF83B88721
:1034200004E610E01E8B0D8B44E0BE016B5F7F4F06
:10343000CE01459695DF40E161EA78E1CE014596FF
:103440008FDF40E161EB78E1CE01459689DF40E115
:103450006DE878E1CE01459683DF44E065E878E1E8
:10346000CE0145967DDF44E061E878E1CE014596E6
:1034700077DF44E069E878E1CE01459671DF44E00A
:1034800061E778E1CE0145966BDF44E061EC78E1DD
:10349000CE01459665DF44E06DE778E1CE014596C3
:1034A0005FDF44E069E778E1CE01459659DF44E00B
:1034B00065E778E1CE01459653DF4CE062E17AE0C2
:1034C000CE0145964DDF84EB90E09C8B8B8B86E4A0
:1034D00090E09A8B898B188A1F8680EF90E09E87F8
:1034E0008D871C870B871A86198642E0BE016D5EA8
:1034F0007F4FCE01459634DF42E0BE016F5E7F4FC5
:10350000CE0145962DDF42E0BE01615F7F4FCE01C7
:10351000459626DF42E0BE01635F7F4FCE014596B0
:103520001FDF42E0BE01655F7F4FCE01459618DF89
:1035300042E0BE01675F7F4FCE01459611DF44E058
:1035400066E772E0CE0145960BDF44E062E772E089
:10355000CE01459605DF44E06EE672E0CE01459669
:10356000FFDE46E06EE572E0CE014596F9DE41E011
:1035700064E572E0CE014596F3DE41E06FE37EE064
:10358000CE014596EDDE44E06BE172E0CE0145965A
:10359000E7DE44E067E172E0CE014596E1DE86E5D4
:1035A00091E3A1E3B0E089839A83AB83BC831E8B54
:1035B0000D8B44E0BE016F5F7F4FCE014596D0DE9C
:1035C000E3EFF3E08491882341F09091C00095FFF0
:1035D000FCCF8093C6003196F5CFE3EEF3E0849103
:1035E000882341F09091C00095FFFCCF8093C600E6
:1035F0003196F5CF8091C00085FFFCCF8AE08093A3
:10360000C60066960FB6F894DEBF0FBECDBFDF9141
:10361000CF911F910F910895CF93DF93C3EFD3E024
:10362000FE018491882341F09091C00095FFFCCF6A
:103630008093C6003196F5CFE3EDF3E084918823C3
:1036400041F09091C00095FFFCCF8093C600319669
:10365000F5CF8091C00085FFFCCF8AE08093C60043
:10366000FE018491E3EFF3E0882349F09091C000DC
:1036700095FFFCCF8093C60031968491F5CF4091A1
:10368000A1185091A2186091A3187091A4188BEC06
:1036900093E08DD74091A5185091A6186091A71876
:1036A0007091A81888EC93E082D74091A9185091A6
:1036B000AA186091AB187091AC1885EC93E077D79D
:1036C0004091AD185091AE186091AF187091B0183C
:1036D00082EC93E06CD78091C00085FFFCCF8AE03C
:1036E0008093C600FE018491E3EFF3E0882349F064
:1036F0009091C00095FFFCCF8093C60031968491D5
:10370000F5CFE8EAF3E08491882341F09091C0007E
:1037100095FFFCCF8093C6003196F5CF8091C00015
:1037200085FFFCCF8AE08093C600FE018491E3EF21
:10373000F3E0882349F09091C00095FFFCCF80937F
:10374000C60031968491F5CF4091B1185091B218CE
:103750006091B3187091B4188FE993E028D7409125
:10376000B5185091B6186091B7187091B8188CE9D7
:1037700093E01DD74091B9185091BA186091BB18C9
:103780007091BC1889E993E012D74091BD1850910F
:10379000BE186091BF187091C01886E993E007D7F2
:1037A0008091C00085FFFCCF8AE08093C600FE01B7
:1037B0008491E3EFF3E0882349F09091C00095FFF6
:1037C000FCCF8093C60031968491F5CFE8E7F3E013
:1037D0008491882341F09091C00095FFFCCF8093A5
:1037E000C6003196F5CF8091C00085FFFCCF8AE0FE
:1037F0008093C600FE018491E3EFF3E0882349F053
:103800009091C00095FFFCCF8093C60031968491C3
:10381000F5CF40918D1850918E1860918F1870914E
:1038200090188FE693E0D4D6409191185091921859
:1038300060919318709194188CE693E0C9D64091EA
:10384000951850919618609197187091981889E67C
:1038500093E0BED64091991850919A1860919B18A8
:1038600070919C1886E693E0B3D68091C00085FFE6
:10387000FCCF8AE08093C600FE018491E3EFF3E081
:10388000882349F09091C00095FFFCCF8093C6003B
:1038900031968491F5CFE1E3F3E08491882341F000
:1038A0009091C00095FFFCCF8093C6003196F5CF74
:1038B0008091C00085FFFCCF8AE08093C600FE01A6
:1038C0008491E3EFF3E0882349F09091C00095FFE5
:1038D000FCCF8093C60031968491F5CF4091851836
:1038E00050918618609187187091881888E293E04B
:1038F0005ED6409181185091821860918318709122
:10390000841885E293E053D68091C00085FFFCCFF8
:103910008AE08093C600FE018491E3EFF3E0882300
:1039200049F09091C00095FFFCCF8093C60031967E
:103930008491F5CFE2E7F2E08491882341F0909101
:10394000C00095FFFCCF8093C6003196F5CF8091E3
:10395000C00085FFFCCF8AE08093C600FE01849101
:10396000E3EFF3E0882349F09091C00095FFFCCF8E
:103970008093C60031968491F5CF4091891850917B
:103980008A1860918B1870918C1889E692E00FD696
:103990004091711850917218609173187091741859
:1039A00086E692E004D64091C1185091C218609109
:1039B000C3187091C41883E692E00AD640917D182E
:1039C00050917E1860917F187091801880E692E087
:1039D000EED54091791850917A1860917B187091CA
:1039E0007C188DE592E0E3D54091751850917618DA
:1039F00060917718709178188AE592E0D8D5809117
:103A0000C00085FFFCCF8AE08093C600FE01849150
:103A1000E3EFF3E0882349F09091C00095FFFCCFDD
:103A20008093C60031968491F5CFE8E4F2E084916A
:103A3000882341F09091C00095FFFCCF8093C60091
:103A40003196F5CF8091C00085FFFCCF8AE080934E
:103A5000C600FE018491E3EFF3E0882349F09091E2
:103A6000C00095FFFCCF8093C60031968491F5CFBE
:103A70004091120A5091130A6091140A7091150A2C
:103A80008FE392E094D54091160A5091170A609105
:103A9000180A7091190A8CE392E089D540911A0AAC
:103AA00050911B0A60911C0A70911D0A89E392E0F3
:103AB0007ED58091C00085FFFCCF8AE08093C60050
:103AC000FE018491E3EFF3E0882349F09091C00078
:103AD00095FFFCCF8093C60031968491F5CFEBE241
:103AE000F2E08491882341F09091C00095FFFCCFD3
:103AF0008093C6003196F5CF8091C00085FFFCCF42
:103B00008AE08093C600FE01C491E3EFF3E0CC238A
:103B100049F08091C00085FFFCCFC093C60031966C
:103B2000C491F5CF4091760250917702609178026E
:103B30007091790281E292E03AD5609172027091BF
:103B4000730280917402909175020E94DAD2AB01E7
:103B5000BC018EE192E02BD560916E0270916F02F4
:103B600080917002909171020E94E4D2AB01BC017D
:103B70008BE192E01CD58091C00085FFFCCF8AE0EC
:103B80008093C600DF91CF910895AF92BF92CF92FC
:103B9000DF92EF92FF920F931F93CF93DF93CDB7F6
:103BA000DEB7E0970FB6F894DEBF0FBECDBF80E161
:103BB000EEE7F2E0DE01919601900D928A95E1F731
:103BC00080E1EEE8F2E0DE01519601900D928A95D7
:103BD000E1F780E1EEE9F2E0DE01119601900D924D
:103BE0008A95E1F76E0181E2C80ED11C81EAE82EC8
:103BF00088E1F82E8E010F5E1F4F61EB78E1AE0178
:103C00004F5F5F4F9DE8A92E98E1B92E20E030E08C
:103C1000F60181919191A191B1916F01F701819389
:103C20009193A193B1937F01F80181919191A19119
:103C3000B1918F01FB0181939193A193B193BF0146
:103C4000FA0181919191A191B191AF01F501819317
:103C50009193A193B1935F012F5F3F4F24303105C2
:103C6000B9F60E9489C080E090E8ABE3B5E48093A8
:103C7000851890938618A0938718B093881880931E
:103C8000811890938218A0938318B093841810928F
:103C9000891810928A1810928B1810928C1880E252
:103CA0009EE4A0E0B0E08093C1189093C218A09366
:103CB000C318B093C4181092711810927218109211
:103CC00073181092741880E090E0A0EAB1E4809339
:103CD0007D1890937E18A0937F18B09380188DEC78
:103CE0009CECACECBEE38093791890937A18A09387
:103CF0007B18B0937C1880E090E0A0EAB0E4809359
:103D0000751890937618A0937718B093781810923E
:103D10001A0A10921B0A10921C0A10921D0A109285
:103D2000160A1092170A1092180A1092190A109285
:103D3000120A1092130A1092140A1092150A80E0C7
:103D400090E0A0E2B1E48093760290937702A09392
:103D50007802B093790260E070E080E290E40E9423
:103D6000D4D2609372027093730280937402909322
:103D7000750260E070E088EC92E40E94DFD260930C
:103D80006E0270936F0280937002909371020E9492
:103D900051CA80E090E0A0E8BFE380936A0290936C
:103DA0006B02A0936C02B0936D0280EB94E0909351
:103DB0005F0280935E02909361028093600282EEC4
:103DC00094E0909363028093620284E680935402AD
:103DD00010923F0E80E090E0A0E9B0E480931B02D7
:103DE00090931C02A0931D02B0931E0280E090E805
:103DF000ABEBB4E48093170290931802A0931902DE
:103E0000B0931A02E3EFF3E08491882341F090919C
:103E1000C00095FFFCCF8093C6003196F5CFEAED48
:103E2000F1E08491882341F09091C00095FFFCCF90
:103E30008093C6003196F5CF8091C00085FFFCCFFE
:103E40008AE08093C600E0960FB6F894DEBF0FBEFE
:103E5000CDBFDF91CF911F910F91FF90EF90DF9039
:103E6000CF90BF90AF900895CF93DF93CDB7DEB7DB
:103E700066970FB6F894DEBF0FBECDBF84E690E024
:103E80009E8B8D8B86E591E3A1E3B0E089839A83D5
:103E9000AB83BC8344E0BE016B5F7F4FCE01459690
:103EA00085DA43E050E0BE016B5F7F4FCE010196A3
:103EB0000E948BE3892B09F0C8C040E161EA78E1F8
:103EC000CE01459673DA40E161EB78E1CE0145968B
:103ED0006DDA40E16DE878E1CE01459667DA0E943F
:103EE00089C044E065E878E1CE0145965FDA44E0B8
:103EF00061E878E1CE01459659DA44E069E878E175
:103F0000CE01459653DA44E061E778E1CE0145966B
:103F10004DDA44E061EC78E1CE01459647DA44E0C1
:103F20006DE778E1CE01459641DA44E069E778E152
:103F3000CE0145963BDA44E065E778E1CE0145964F
:103F400035DA4CE062E17AE0CE0145962FDA42E0C4
:103F5000BE016D5E7F4FCE01459628DA42E0BE017C
:103F60006F5E7F4FCE01459621DA42E0BE01615F70
:103F70007F4FCE0145961ADA42E0BE01635F7F4F64
:103F8000CE01459613DA42E0BE01655F7F4FCE0158
:103F900045960CDA42E0BE01675F7F4FCE01459641
:103FA00005DA44E066E772E0CE014596FFD944E0C9
:103FB00062E772E0CE014596F9D944E06EE672E020
:103FC000CE014596F3D946E06EE572E0CE01459606
:103FD000EDD941E064E572E0CE014596E7D941E0D4
:103FE0006FE37EE0CE014596E1D944E06BE172E0FB
:103FF000CE014596DBD944E067E172E0CE014596FB
:10400000D5D90E9451CAE3EFF3E08491882341F0AF
:104010009091C00095FFFCCF8093C6003196F5CFFC
:10402000E1E0F2E08491882341F09091C00095FF97
:10403000FCCF8093C6003196F5CF8091C00085FFFC
:10404000FCCF8AE08093C60001C09FDD43E050E0D2
:104050006CEF71E0CE0101960E9421E3892B51F4AF
:1040600088EB90E09E8B8D8B4CE062E17AE0CE0194
:1040700045969CD9D1DA66960FB6F894DEBF0FBE8E
:10408000CDBFDF91CF9108951F920F920FB60F927F
:1040900011240BB60F922F933F934F935F936F931F
:1040A0008F939F93EF93FF936091C6002091ED0350
:1040B0003091EE03C90101968F7799274091EF0364
:1040C0005091F0038417950741F0F901E359FC4F33
:1040D00060839093EE038093ED03FF91EF919F91A6
:1040E0008F916F915F914F913F912F910F900BBEE8
:1040F0000F900FBE0F901F9018959A01AB012115DC
:1041000081EE38074105510549F182E08093C000F6
:1041100060E079E08DE390E00E9409D921503109F7
:1041200041095109CA01B90122E030E040E050E004
:104130000E9409D93093C5002093C4008091C1002A
:1041400080618093C1008091C10088608093C1002C
:104150008091C10080688093C10008951092C000D2
:1041600020E130E0E7CF2091EF033091F003809120
:10417000ED039091EE038217930771F0F901E35973
:10418000FC4F80812F5F3F4F2F7733273093F00311
:104190002093EF0390E008958FEF9FEF08958091B3
:1041A000EF039091F0039093EE038093ED03089555
:1041B0004F925F926F927F928F929F92AF92BF9237
:1041C000CF92DF92EF92FF920F931F93CF93DF93E3
:1041D000CDB7DEB7A0970FB6F894DEBF0FBECDBF48
:1041E0005C014115510561057105E9F420E030E0FD
:1041F00040E350E060E070E0A0960FB6F894DEBFB8
:104200000FBECDBFDF91CF911F910F91FF90EF9027
:10421000DF90CF90BF90AF909F908F907F906F90E6
:104220005F904F905BC08E010F5F1F4FC12CD12C50
:1042300076014801422E512C612C712C8FEFC81A47
:10424000D80AE80AF80ACB01BA01A30192010E9438
:10425000E7D8CA01F80161938F01A901BC0141159A
:1042600051056105710551F7F1E0CF1AD108E10858
:10427000F108F401EC0DFD1D80818A3010F440E35B
:1042800001C047E3480F552747FD5095652F752F0F
:1042900020E030E0C50122D081E0C81AD108E10851
:1042A000F108EFEFCE16DE06EE06FE0611F7A09639
:1042B0000FB6F894DEBF0FBECDBFDF91CF911F9137
:1042C0000F91FF90EF90DF90CF90BF90AF909F90B5
:1042D0008F907F906F905F904F90089521153105DA
:1042E00039F48091C00085FFFCCF4093C60008954B
:1042F0002A30310509F44DC05BCFCF93DF93EC0139
:1043000020E030E04DE050E060E070E0E7DF20E0EA
:1043100030E04AE050E060E070E0CE01DF91CF9104
:10432000DDCFEF92FF920F931F93CF93DF937C012A
:104330008B01C0E0D0E0F80184819581C817D907CE
:1043400064F4BE01C8010E943DD49091C00095FF65
:10435000FCCF8093C6002196EECFC701DF91CF91AD
:104360001F910F91FF90EF90C8CFFB012191BF01EA
:10437000222339F03091C00035FFFCCF2093C600D6
:10438000F4CFBBCF9A01AB01662757FD6095762F1E
:10439000A5CFCF92DF92EF92FF92CF93DF93EC0104
:1043A0006A017B0177FF0FC020E030E04DE250E072
:1043B00060E070E093DFF094E094D094C094C11C6E
:1043C000D11CE11CF11C2AE0B701A601CE01DF914E
:1043D000CF91FF90EF90DF90CF90EACE211531057D
:1043E00039F48091C00085FFFCCF4093C60008954A
:1043F000DFCE9A01462F50E060E070E0EFCFCF9320
:10440000DF93EC019A01AB0160E070E0E7DFCE01E1
:10441000DF91CF9172CF8F929F92AF92BF92CF9246
:10442000DF92EF92FF921F93CF93DF93EC016A012B
:104430007B01122F20E030E0A901C701B6010E94E4
:1044400042DA87FF0CC020E030E04DE250E060E04F
:1044500070E0CE0143DFF7FAF094F7F8F094B12C56
:1044600060E070E080E09FE3B11641F020E030E0D2
:1044700040E251E40E9449DAB394F6CF9B01AC01CB
:10448000C701B6010E9469D96B017C010E94B6DAAE
:104490004B015C010E94E2DA9B01AC01C701B6014D
:1044A0000E9468D96B017C012AE0B501A401CE010C
:1044B0007FDE112361F0E7EBF2E08191882339F090
:1044C0009091C00095FFFCCF8093C600F6CF1123DA
:1044D00019F120E030E040E251E4C701B6010E944A
:1044E00017DD6B017C010E94B1DA4B01AA2497FC15
:1044F000A094BA2CB501A401CE014BDFC501B401D3
:104500000E94E4DA9B01AC01C701B6010E9468D9A0
:104510006B017C011150DBCFDF91CF911F91FF9098
:10452000EF90DF90CF90BF90AF909F908F900895C5
:1045300072CFFC01659175918591949108950F93C7
:104540001F93CF93DF93EC01CC0FDD1FCC0FDD1F4A
:10455000CE01825F954FEDDF8E01025E154FFE01A9
:10456000EE5EF54F20813181428153810E9469D9ED
:10457000F8016083718382839383CE018A5D954FB6
:10458000D8DFFE01E45DFD4F6083718382839383F6
:10459000CE01865E954FCDDFC05EDD4F68837983A7
:1045A0008A839B83DF91CF911F910F910895FC0126
:1045B0002491222341F03091C00035FFFCCF20939D
:1045C000C6000196F4CF22E030E08CE693E0B0CF55
:1045D000FC012491222341F03091C00035FFFCCF33
:1045E0002093C6000196F4CF2AE030E08CE693E0F9
:1045F000F5CECF93DF931F921F92CDB7DEB7809198
:104600008819909189199E012F5F3F4F009719F4E7
:104610002E58394102C0281B390B3A8329838981DE
:104620009A810F900F90DF91CF91089580910D04A2
:1046300090910E04181619069CF480911104909123
:104640001204019668E070E00E94D4D890931004A0
:1046500080930F0481E090E090930E0480930D040A
:10466000089520910D0430910E04283031050CF08E
:104670006AC040910F045091100460E6649F90015D
:10468000659F300D1124BC01C901855E9B4F0E94BE
:1046900084E3E2E3FAE08491882341F09091C00042
:1046A00095FFFCCF8093C6003196F5CFE8EEF9E098
:1046B0008491882341F09091C00095FFFCCF8093B6
:1046C000C6003196F5CF80910F049091100420E63A
:1046D000289FF001299FF00D1124E55EFB4F819189
:1046E000882339F09091C00095FFFCCF8093C600DD
:1046F000F6CFE6EEF9E08491882341F09091C00076
:1047000095FFFCCF8093C6003196F5CF8091C00015
:1047100085FFFCCF8AE08093C60080910F049091C2
:104720001004019668E070E00E94D4D890931004C1
:1047300080930F0480910D0490910E040196909344
:104740000E0480930D04089520910D0430910E0401
:10475000283031050CF06AC040910F0450911004CC
:1047600060E6649F9001659F300D1124BC01C90172
:10477000855E9B4F0E94F9E2E2E3FAE08491882390
:1047800041F09091C00095FFFCCF8093C600319618
:10479000F5CFEBEDF9E08491882341F09091C000D2
:1047A00095FFFCCF8093C6003196F5CF80910F0422
:1047B0009091100420E6289FF001299FF00D11240C
:1047C000E55EFB4F8191882339F09091C00095FF01
:1047D000FCCF8093C600F6CFE9EDF9E08491882301
:1047E00041F09091C00095FFFCCF8093C6003196B8
:1047F000F5CF8091C00085FFFCCF8AE08093C60092
:1048000080910F0490911004019668E070E00E947E
:10481000D4D89093100480930F0480910D0490914C
:104820000E04019690930E0480930D04089581E088
:1048300020910D0430910E04121613060CF080E046
:10484000089580910D0408950A9A129A0895FCDF44
:1048500040E950ED63E070E08CE693E04EDCE3ED80
:10486000F9E08491882341F09091C00095FFFCCF3E
:104870008093C6003196F5CF8091C00085FFFCCFB4
:104880008AE08093C60082E39AE0FC01249122230F
:1048900041F03091C00035FFFCCF2093C600319627
:1048A000F5CF24B720FF14C0EBECF9E034913323AB
:1048B00041F04091C00045FFFCCF3093C6003196D7
:1048C000F5CF3091C00035FFFCCF3AE03093C60001
:1048D00021FF14C0EBEBF9E03491332341F0409118
:1048E000C00045FFFCCF3093C6003196F5CF309124
:1048F000C00035FFFCCF3AE03093C60022FF14C061
:10490000EAEAF9E03491332341F04091C00045FFD9
:10491000FCCF3093C6003196F5CF3091C00035FF03
:10492000FCCF3AE03093C60023FF14C0EAE9F9E077
:104930003491332341F04091C00045FFFCCF3093C8
:10494000C6003196F5CF3091C00035FFFCCF3AE07C
:104950003093C60025FF14C0EAE8F9E02491222331
:1049600041F03091C00035FFFCCF2093C600319656
:10497000F5CF2091C00025FFFCCF2AE02093C60090
:1049800014BEE2E8F9E02491222341F03091C00006
:1049900035FFFCCF2093C6003196F5CFECE7F9E068
:1049A0002491222341F03091C00035FFFCCF2093A9
:1049B000C6003196F5CF2091C00025FFFCCF2AE03C
:1049C0002093C600FC012491E2E3FAE0222349F09F
:1049D0003091C00035FFFCCF2093C6003196249162
:1049E000F5CFECE6F9E02491222341F03091C000AC
:1049F00035FFFCCF2093C6003196F5CFE7E5F9E00F
:104A00002491222341F03091C00035FFFCCF209348
:104A1000C6003196F5CFEBE4F9E02491222341F072
:104A20003091C00035FFFCCF2093C6003196F5CF02
:104A3000EFE3F9E02491222341F03091C00035FFEB
:104A4000FCCF2093C6003196F5CF2091C00025FF02
:104A5000FCCF2AE02093C600E4E3F9E0249122236E
:104A600041F03091C00035FFFCCF2093C600319655
:104A7000F5CFE8E2F9E02491222341F03091C00023
:104A800035FFFCCF2093C6003196F5CF2091C000B2
:104A900025FFFCCF2AE02093C600FC018491E2E3CD
:104AA000FAE0882349F09091C00095FFFCCF8093F5
:104AB000C60031968491F5CFE9E1F9E0849188232D
:104AC00041F09091C00095FFFCCF8093C6003196D5
:104AD000F5CF8FDD4AE050E0BC018CE693E052DC7C
:104AE000E2E0F9E08491882341F09091C00095FFC5
:104AF000FCCF8093C6003196F5CF4AE050E060EDE0
:104B000074E08CE693E03EDC8091C00085FFFCCF32
:104B10008AE08093C600E3E1F4E0119284E0EB3197
:104B2000F807D9F7A1D90E94CEAB0E9473CA0E94A0
:104B3000FEB40E94EAD20E94ECC80C94175E8091E9
:104B400007049091080460E070E001960C94ECDF9B
:104B500080910704909108044AE050E060E070E022
:104B600001960C9454E1682F772767FD709520918A
:104B700011043091120440E6429FC001439F900D02
:104B80001124855E9B4F0E9479E3909308048093E3
:104B9000070421E0892B09F420E0822F08950E9468
:104BA000A6D4609303047093040480930504909347
:104BB0000604E0911104F0911204ED5EFB4F808138
:104BC000811114C0EAEEF4E08491882341F09091C1
:104BD000C00095FFFCCF8093C6003196F5CF809141
:104BE000C00085FFFCCF8AE08093C60008958CE664
:104BF00093E0D5DAEDEEF4E08491882341F09091D2
:104C0000C00095FFFCCF8093C6003196F5CF409150
:104C100020075091210760912207709123074F5F71
:104C20005F4F6F4F7F4F2AE030E08CE693E056DB1A
:104C30008091C00085FFFCCF8AE08093C600AFCF93
:104C40002F923F924F925F926F927F928F929F929C
:104C5000AF92BF92CF92DF92EF92FF920F931F938A
:104C6000CF93DF93CDB7DEB76E970FB6F894DEBF64
:104C70000FBECDBF30E6932E08E010E045ECE42EE9
:104C800047E0F42E5AE0852E6BE3C62E68E0D62E60
:104C9000772473948091ED039091EE032091EF03BC
:104CA0003091F003821B930B8F779927892B39F072
:104CB00080910D0490910E0408970CF455C08091DA
:104CC000360A882309F4F5C380910A0490910B04F5
:104CD000892BC1F00E94A6D40091410E1091420E82
:104CE0002091430E3091440E601B710B820B930B8D
:104CF000683873418105910508F4DBC310920B04F9
:104D000010920A048091370A8111D3C31AE09CE300
:104D1000C92ED12CE12CF12C20E1422E2EE0522E76
:104D2000612C712CCE0101961C0100E64091270CEC
:104D30005091280C6091290C70912A0C80911F0CC5
:104D40009091200CA091210CB091220C481759078A
:104D50006A077B0708F0ADC380910D0490910E04A3
:104D600008970CF444C2A5C38CE693E0FCD9809369
:104D70000C0420910A0430910B048A3061F08D30CC
:104D800051F08A3321F490910904992321F02F35B1
:104D900031050CF451C12115310509F46BC1809125
:104DA0000F0490911004989E5001999EB00C11240C
:104DB000F501E20FF31FE55EFB4F1082209109041D
:104DC000211135C1FC01ED5EFB4F10829501255E7E
:104DD0003B4F29016EE470E0C9010E9479E300971E
:104DE000E9F19093080480930704841995098A0DCA
:104DF0009B1D4AE050E060E070E0845E9B4F0E94A3
:104E000054E16093240770932507809326079093BD
:104E100027072091200730912107409122075091C8
:104E200023072F5F3F4F4F4F5F4FA0900F04B0906D
:104E30001004621773078407950709F41EC19A9C32
:104E4000C0019B9C900D112464EE78E0855E9B4F21
:104E50000E943EE3892B09F010C19DC16AE270E017
:104E6000C2010E9479E3892B09F443C0E8E3FAE028
:104E70008491882341F09091C00095FFFCCF8093EE
:104E8000C6003196F5CFEEE3F8E08491882341F037
:104E90009091C00095FFFCCF8093C6003196F5CF6E
:104EA00040912007509121076091220770912307BC
:104EB0002AE030E08CE693E011DA8091C00085FFB3
:104EC000FCCF8AE08093C60010920B0410920A0473
:104ED000F0C28091240790912507A0912607B091F8
:104EE00027078093200790932107A0932207B09370
:104EF000230780910F0490911004989E5001999E71
:104F0000B00C1124C501855E9B4F2C0167E470E055
:104F10000E9479E3009709F444C0909308048093B9
:104F20000704841995098A0D9B1D60E070E0845E7A
:104F30009B4F0E94ECDF0E94B1DA6430710588F566
:104F40008091F503811118C08091340A811129C024
:104F5000F6018491EBE3F8E0882349F09091C000DA
:104F600095FFFCCF8093C60031968491F5CF809158
:104F7000C00085FFFCCF13C0F7018491E5ECF7E09A
:104F8000882349F09091C00095FFFCCF8093C60024
:104F900031968491F5CF8091C00085FFFCCF80923F
:104FA000C60080910F0490911004989E5001999E24
:104FB000B00C11249501255E3B4F29016DE470E092
:104FC000C9010E9479E3909308048093070484192F
:104FD00095098A0D9B1D4AE050E060E070E0845E18
:104FE0009B4F0E9454E1693671058105910551F08E
:104FF0000E94A6D46093410E7093420E8093430E9C
:105000009093440E80910F04909110040196B80182
:105010000E94D4D89093100480930F0480910D04C3
:1050200090910E04019690930E0480930D041092BB
:105030000B0410920A042ECE8B3311F470920904E3
:1050400090910904911126CE40910F0450911004C3
:10505000B9016F5F7F4F70930B0460930A04949EB5
:10506000F001959EF00D1124E20FF31FE55EFB4F5A
:10507000808310CE109209041CC29A9C20019B9C34
:10508000500C1124C201855E9B4F5C016AE270E006
:105090000E9479E3009781F5E8E3FAE084918823A0
:1050A00041F09091C00095FFFCCF8093C6003196EF
:1050B000F5CFE8E6F8E08491882341F09091C000B4
:1050C00095FFFCCF8093C6003196F5CF4091200725
:1050D0005091210760912207709123072AE030E068
:1050E0008CE693E0FBD88091C00085FFFCCF8AE07E
:1050F0008093C6007CDDE8CE20E0612CF201E20F57
:10510000F11DE55EFB4F30813A3219F02F5F6326C7
:10511000F5CF90930804809307048A199B09840DA6
:10512000951D60E070E0845E9B4F0E94ECDF0E9462
:10513000B1DA262D30E02617370709F4CACEE8E3A6
:10514000FAE08491882341F09091C00095FFFCCF54
:105150008093C6003196F5CFE2E9F8E08491882388
:1051600041F09091C00095FFFCCF8093C60031962E
:10517000F5CF40912007509121076091220770914F
:1051800023072AE030E08CE693E0A8D88091C000A5
:1051900085FFFCCFACCFE8E3FAE08491882341F0AF
:1051A0009091C00095FFFCCF8093C6003196F5CF5B
:1051B000E1EBF8E08491882341F09091C00095FFE5
:1051C000FCCF8093C6003196F5CF409120075091D7
:1051D000210760912207709123072AE030E08CE6D6
:1051E00093E07CD88091C00085FFFCCF80CF809178
:1051F0000C0C90910D0CA0910E0CB0910F0C8093A3
:10520000270C9093280CA093290CB0932A0C84E0CF
:105210009CE00E944D502091DE0B2223B9F1809139
:10522000380A811105C084E39AE00E946DA34CCE38
:105230001092DE0B10920B0410920A044091F103BD
:105240005091F2036091F3037091F40380911F0C6D
:105250009091200CA091210CB091220C9250A109A8
:10526000B10984179507A607B70718F41092360AF4
:1052700020C14093270C5093280C6093290C709305
:105280002A0C84E09CE00E94165113C1482F8093A1
:105290000C048A30A1F08D3091F08A3321F42091F2
:1052A0000904222361F020910A0430910B042F3568
:1052B00031052CF48F3FAFEF9A0709F0C8C08090FA
:1052C000270C9090280CA090290CB0902A0C4091AB
:1052D0001F0C5091200C6091210C7091220C8416AF
:1052E0009506A606B70608F0D1C0019609F06AC077
:1052F000CDC09091C00095FFFCCF8093C600319641
:1053000084918111F6CF8091C00085FFFCCF10936E
:10531000C6000E94A6D46093F7037093F8038093AD
:10532000F9039093FA038090FB039090FC03A09004
:10533000FD03B090FE03681979098A099B0928EEDC
:1053400033E040E050E00E94E7D849015A01CA0129
:10535000B901A70196010E94E7D8CA01B901A701C6
:1053600096010E94E7D87F936F93C501B401A30112
:1053700092010E94E7D83F932F93AEE9B7E0BF9325
:10538000AF933F922F920E94FDE3E2E3FAE0849113
:105390000FB6F894DEBF0FBECDBF81117AC0F10108
:1053A000819181117FC08091C00085FFFCCF109357
:1053B000C60084E39AE00E944AAA61E084E39AE08E
:1053C0000E9490A720910A0430910B042115310509
:1053D00009F450CE80910F0490911004089FF001C1
:1053E000099FF00D1124E20FF31FE55EFB4F1082C1
:1053F000FC01ED5EFB4F21E0208320910D043091F4
:105400000E042F5F3F4F30930E0420930D0401963E
:1054100068E070E00E94D4D89093100480930F0449
:105420001092090410920B0410920A048091270C28
:105430009091280CA091290CB0912A0C8093F10333
:105440009093F203A093F303B093F4036FCC4B3328
:1054500019F441E04093090440910904411166CCDC
:1054600040910F0450911004B9016F5F7F4F70930A
:105470000B0460930A04049FF001059FF00D1124B2
:10548000E20FF31FE55EFB4F808350CCE2EBF7E0C9
:1054900037CF9091C00095FFFCCF8093C600319626
:1054A00084917BCF9091C00095FFFCCF8093C60084
:1054B00077CF6E960FB6F894DEBF0FBECDBFDF91EB
:1054C000CF911F910F91FF90EF90DF90CF90BF9001
:1054D000AF909F908F907F906F905F904F903F9094
:1054E0002F9008954F925F926F927F928F929F922A
:1054F000AF92BF92CF92DF92EF92FF920F931F93E2
:10550000CF93DF9300D01F92CDB7DEB719821A82F6
:105510001B821C8271EFA72E72E0B72EEEE1CE2E19
:10552000EAE0DE2EFCE3EF2EF7E0FF2E00E010E0D5
:1055300099249394F50181915F0115DB882361F132
:10554000FEDA2B013C01F801E05DF54F808181110D
:1055500003C060911B0701C061E070E080E090E053
:105560000E94E4DAF60120813181428153810E9458
:1055700017DD9B01AC01C301B2010E9469D9F7019B
:105580006083718382839383E1E0F0E0EC0FFD1F81
:10559000E00FF11F90820AC0F60180819181A28103
:1055A000B381F70180839183A283B3830F5F1F4F81
:1055B000F4E0CF0ED11C84E0E80EF11C043011059C
:1055C00009F0B8CF86E4CFDA8823D1F0B8DA6B01DE
:1055D0007C0160932C0770932D0780932E07909386
:1055E0002F0720E030E0A9010E9445DC181644F4A2
:1055F000C0920A02D0920B02E0920C02F0920D02CD
:1056000080915207882309F4BCC089818111B9C0F7
:105610008A818111B6C08B818111B3C08C818823AE
:1056200009F4AFC080902A0A90902B0AA0902C0A0F
:10563000B0902D0AA5019401609148077091490727
:1056400080914A0790914B070E9468D96B017C01B9
:105650002DEC3CEC4CEC5DEB0E9442DA87FF4DC038
:105660008091510781118DC0209113023091140255
:1056700040911502509116026091440770914507C0
:1056800080914607909147070E9469D9609344072B
:10569000709345078093460790934707C701B6016B
:1056A000905820911B0230911C0240911D02509194
:1056B0001E020E9468D99B01AC01C501B4010E9481
:1056C00068D960932A0A70932B0A80932C0A9093CE
:1056D0002D0A8091170290911802A0911902B091A1
:1056E0001A0280930A0290930B02A0930C02B093CB
:1056F0000D0281E08093510744C02DEC3CEC4CEC52
:105700005DE3C701B6010E9445DC1816D4F580910F
:1057100051078823B1F1A701960160911B02709196
:105720001C0280911D0290911E020E9468D9209156
:105730004D0730914E0740914F07509150070E94FE
:1057400069D99B01AC01C501B4010E9469D960937C
:105750002A0A70932B0A80932C0A90932D0A809129
:105760000F0290911002A0911102B0911202809349
:105770000A0290930B02A0930C02B0930D021092B8
:1057800051070F900F900F900F90DF91CF911F91C5
:105790000F91FF90EF90DF90CF90BF90AF909F90D0
:1057A0008F907F906F905F904F9008959BDE89E47B
:1057B000DAD9882351F0C3D9609330077093310749
:1057C000809332079093330708C0109230071092ED
:1057D000310710923207109233078AE4C4D9882324
:1057E00051F0ADD960933407709335078093360735
:1057F000909337070895109234071092350710924E
:105800003607109237070895CF92DF92EF92FF92FA
:10581000CF93DF93EC01C0902C02D0902D02E0904A
:105820002E02F0902F02A7019601688179818A816A
:105830009B810E9442DA87FF07C0C882D982EA8230
:10584000FB8281E080935307C0903002D0903102F8
:10585000E0903202F0903302A70196016C817D81C5
:105860008E819F810E9442DA87FF07C0CC82DD8251
:10587000EE82FF8281E080935307C0903402D09083
:105880003502E0903602F0903702A7019601688554
:1058900079858A859B850E9442DA87FF07C0C88682
:1058A000D986EA86FB8681E080935307C090200268
:1058B000D0902102E0902202F0902302A7019601ED
:1058C000688179818A819B810E9445DC18163CF4AD
:1058D000C882D982EA82FB8281E080935307C0901C
:1058E0002402D0902502E0902602F0902702A70122
:1058F00096016C817D818E819F810E9445DC181606
:105900003CF4CC82DD82EE82FF8281E080935307FB
:10591000C0902802D0902902E0902A02F0902B0239
:10592000A7019601688579858A859B850E9445DC5B
:1059300018163CF4C886D986EA86FB8681E08093F7
:105940005307DF91CF91FF90EF90DF90CF900895B4
:10595000CF92DF92EF92FF920F931F938CE397E029
:1059600053DF0E94A6D460930304709304048093D1
:1059700005049093060420913C0730913D07409127
:105980003E0750913F0760911E0A70911F0A809157
:10599000200A9091210A0E9442DA811179C0209157
:1059A0004007309141074091420750914307609171
:1059B000220A7091230A8091240A9091250A0E945C
:1059C00042DA811165C020E030E040E752E46091A6
:1059D0000A0270910B0280910C0290910D020E94BC
:1059E00049DAA1E1CA2EAAE0DA2E7B018C0128E473
:1059F00037E044E457E060E477E08CE397E00E940E
:105A00001CB680913C0790913D07A0913E07B09154
:105A10003F0780931E0A90931F0AA093200AB09319
:105A2000210A8091400790914107A0914207B091CF
:105A300043078093220A9093230AA093240AB093E9
:105A4000250A8091440790914507A0914607B0919F
:105A500047078093260A9093270AA093280AB093B9
:105A6000290A8091480790914907A0914A07B0916F
:105A70004B0780932A0A90932B0AA0932C0AB09389
:105A80002D0A1F910F91FF90EF90DF90CF90089516
:105A900060913A0270913B02882777FD8095982F9C
:105AA0000E94E4DA20910A0230910B0240910C022C
:105AB00050910D020E9417DD20E030E040E752E4F3
:105AC0000E9449DA20E030E048EC52E488CFAF92FF
:105AD000BF92CF92DF92EF92FF920F931F93CF93DB
